{
  "contractName": "Factory",
  "abi": [
    {
      "inputs": [],
      "stateMutability": "nonpayable",
      "type": "constructor"
    },
    {
      "inputs": [
        {
          "internalType": "string",
          "name": "",
          "type": "string"
        }
      ],
      "name": "deployedTokens",
      "outputs": [
        {
          "internalType": "address",
          "name": "",
          "type": "address"
        }
      ],
      "stateMutability": "view",
      "type": "function"
    },
    {
      "inputs": [
        {
          "internalType": "string",
          "name": "name",
          "type": "string"
        },
        {
          "internalType": "string",
          "name": "symbol",
          "type": "string"
        }
      ],
      "name": "createToken",
      "outputs": [],
      "stateMutability": "nonpayable",
      "type": "function"
    }
  ],
  "bytecode": "0x608060405234801561001057600080fd5b50611021806100206000396000f3fe608060405234801561001057600080fd5b50600436106100365760003560e01c80632f2f2d561461003b57806352f2c3e014610050575b600080fd5b61004e6100493660046101cf565b6100a0565b005b61008461005e366004610233565b80516020818301810180516000825292820191909301209152546001600160a01b031681565b6040516001600160a01b03909116815260200160405180910390f35b600082826040516100b09061011f565b6100bb9291906102c0565b604051809103906000f0801580156100d7573d6000803e3d6000fd5b509050806000846040516100eb91906102ee565b90815260405190819003602001902080546001600160a01b03929092166001600160a01b0319909216919091179055505050565b610ce18061030b83390190565b634e487b7160e01b600052604160045260246000fd5b600082601f83011261015357600080fd5b813567ffffffffffffffff8082111561016e5761016e61012c565b604051601f8301601f19908116603f011681019082821181831017156101965761019661012c565b816040528381528660208588010111156101af57600080fd5b836020870160208301376000602085830101528094505050505092915050565b600080604083850312156101e257600080fd5b823567ffffffffffffffff808211156101fa57600080fd5b61020686838701610142565b9350602085013591508082111561021c57600080fd5b5061022985828601610142565b9150509250929050565b60006020828403121561024557600080fd5b813567ffffffffffffffff81111561025c57600080fd5b61026884828501610142565b949350505050565b60005b8381101561028b578181015183820152602001610273565b50506000910152565b600081518084526102ac816020860160208601610270565b601f01601f19169290920160200192915050565b6040815260006102d36040830185610294565b82810360208401526102e58185610294565b95945050505050565b60008251610300818460208701610270565b919091019291505056fe60806040523480156200001157600080fd5b5060405162000ce138038062000ce183398101604081905262000034916200022d565b8181600362000044838262000325565b50600462000053828262000325565b50505062000073336a52b7d2dcc80cd2e40000006200007b60201b60201c565b505062000419565b6001600160a01b038216620000d65760405162461bcd60e51b815260206004820152601f60248201527f45524332303a206d696e7420746f20746865207a65726f206164647265737300604482015260640160405180910390fd5b8060026000828254620000ea9190620003f1565b90915550506001600160a01b0382166000908152602081905260408120805483929062000119908490620003f1565b90915550506040518181526001600160a01b038316906000907fddf252ad1be2c89b69c2b068fc378daa952ba7f163c4a11628f55a4df523b3ef9060200160405180910390a35050565b505050565b634e487b7160e01b600052604160045260246000fd5b600082601f8301126200019057600080fd5b81516001600160401b0380821115620001ad57620001ad62000168565b604051601f8301601f19908116603f01168101908282118183101715620001d857620001d862000168565b81604052838152602092508683858801011115620001f557600080fd5b600091505b83821015620002195785820183015181830184015290820190620001fa565b600093810190920192909252949350505050565b600080604083850312156200024157600080fd5b82516001600160401b03808211156200025957600080fd5b62000267868387016200017e565b935060208501519150808211156200027e57600080fd5b506200028d858286016200017e565b9150509250929050565b600181811c90821680620002ac57607f821691505b602082108103620002cd57634e487b7160e01b600052602260045260246000fd5b50919050565b601f8211156200016357600081815260208120601f850160051c81016020861015620002fc5750805b601f850160051c820191505b818110156200031d5782815560010162000308565b505050505050565b81516001600160401b0381111562000341576200034162000168565b620003598162000352845462000297565b84620002d3565b602080601f831160018114620003915760008415620003785750858301515b600019600386901b1c1916600185901b1785556200031d565b600085815260208120601f198616915b82811015620003c257888601518255948401946001909101908401620003a1565b5085821015620003e15787850151600019600388901b60f8161c191681555b5050505050600190811b01905550565b808201808211156200041357634e487b7160e01b600052601160045260246000fd5b92915050565b6108b880620004296000396000f3fe608060405234801561001057600080fd5b50600436106100a95760003560e01c80633950935111610071578063395093511461012357806370a082311461013657806395d89b411461015f578063a457c2d714610167578063a9059cbb1461017a578063dd62ed3e1461018d57600080fd5b806306fdde03146100ae578063095ea7b3146100cc57806318160ddd146100ef57806323b872dd14610101578063313ce56714610114575b600080fd5b6100b66101c6565b6040516100c39190610702565b60405180910390f35b6100df6100da36600461076c565b610258565b60405190151581526020016100c3565b6002545b6040519081526020016100c3565b6100df61010f366004610796565b61026f565b604051601281526020016100c3565b6100df61013136600461076c565b61031e565b6100f36101443660046107d2565b6001600160a01b031660009081526020819052604090205490565b6100b661035a565b6100df61017536600461076c565b610369565b6100df61018836600461076c565b610402565b6100f361019b3660046107f4565b6001600160a01b03918216600090815260016020908152604080832093909416825291909152205490565b6060600380546101d590610827565b80601f016020809104026020016040519081016040528092919081815260200182805461020190610827565b801561024e5780601f106102235761010080835404028352916020019161024e565b820191906000526020600020905b81548152906001019060200180831161023157829003601f168201915b5050505050905090565b600061026533848461040f565b5060015b92915050565b600061027c848484610533565b6001600160a01b0384166000908152600160209081526040808320338452909152902054828110156103065760405162461bcd60e51b815260206004820152602860248201527f45524332303a207472616e7366657220616d6f756e74206578636565647320616044820152676c6c6f77616e636560c01b60648201526084015b60405180910390fd5b610313853385840361040f565b506001949350505050565b3360008181526001602090815260408083206001600160a01b03871684529091528120549091610265918590610355908690610861565b61040f565b6060600480546101d590610827565b3360009081526001602090815260408083206001600160a01b0386168452909152812054828110156103eb5760405162461bcd60e51b815260206004820152602560248201527f45524332303a2064656372656173656420616c6c6f77616e63652062656c6f77604482015264207a65726f60d81b60648201526084016102fd565b6103f8338585840361040f565b5060019392505050565b6000610265338484610533565b6001600160a01b0383166104715760405162461bcd60e51b8152602060048201526024808201527f45524332303a20617070726f76652066726f6d20746865207a65726f206164646044820152637265737360e01b60648201526084016102fd565b6001600160a01b0382166104d25760405162461bcd60e51b815260206004820152602260248201527f45524332303a20617070726f766520746f20746865207a65726f206164647265604482015261737360f01b60648201526084016102fd565b6001600160a01b0383811660008181526001602090815260408083209487168084529482529182902085905590518481527f8c5be1e5ebec7d5bd14f71427d1e84f3dd0314c0f7b2291e5b200ac8c7c3b925910160405180910390a3505050565b6001600160a01b0383166105975760405162461bcd60e51b815260206004820152602560248201527f45524332303a207472616e736665722066726f6d20746865207a65726f206164604482015264647265737360d81b60648201526084016102fd565b6001600160a01b0382166105f95760405162461bcd60e51b815260206004820152602360248201527f45524332303a207472616e7366657220746f20746865207a65726f206164647260448201526265737360e81b60648201526084016102fd565b6001600160a01b038316600090815260208190526040902054818110156106715760405162461bcd60e51b815260206004820152602660248201527f45524332303a207472616e7366657220616d6f756e7420657863656564732062604482015265616c616e636560d01b60648201526084016102fd565b6001600160a01b038085166000908152602081905260408082208585039055918516815290812080548492906106a8908490610861565b92505081905550826001600160a01b0316846001600160a01b03167fddf252ad1be2c89b69c2b068fc378daa952ba7f163c4a11628f55a4df523b3ef846040516106f491815260200190565b60405180910390a350505050565b600060208083528351808285015260005b8181101561072f57858101830151858201604001528201610713565b506000604082860101526040601f19601f8301168501019250505092915050565b80356001600160a01b038116811461076757600080fd5b919050565b6000806040838503121561077f57600080fd5b61078883610750565b946020939093013593505050565b6000806000606084860312156107ab57600080fd5b6107b484610750565b92506107c260208501610750565b9150604084013590509250925092565b6000602082840312156107e457600080fd5b6107ed82610750565b9392505050565b6000806040838503121561080757600080fd5b61081083610750565b915061081e60208401610750565b90509250929050565b600181811c9082168061083b57607f821691505b60208210810361085b57634e487b7160e01b600052602260045260246000fd5b50919050565b8082018082111561026957634e487b7160e01b600052601160045260246000fdfea26469706673582212207f3d4ade81229b1d6149fe3cde85b8224e85931c51c877160777a776474d93a964736f6c63430008130033a2646970667358221220e38e1ad016602420a019ec24abb3b9e6e5fdb36cab3f9b468b5be3cc71a4202164736f6c63430008130033",
  "immutableReferences": {},
  "source": "//SPDX-License-Identifier: MIT\npragma solidity ^0.8.0;\nimport \"./MyErc20.sol\";\n\ncontract Factory {\n    mapping(string => address) public deployedTokens;\n\n    constructor(){\n\n    }\n\n    function createToken(string memory name, string memory symbol) public {\n        MyErc20 newToken = new MyErc20(name, symbol);\n        deployedTokens[name] = address(newToken);\n    }\n}",
  "sourcePath": "/Users/pili/mydocument/code/project/dwong/contract-verify/contracts/Factory.sol",
  "compiler": {
    "name": "solc",
    "version": "0.8.19+commit.7dd6d404.Emscripten.clang"
  },
  "schemaVersion": "3.3.4",
  "updatedAt": "2023-08-17T08:05:06.434Z",
  "devdoc": {
    "kind": "dev",
    "methods": {},
    "version": 1
  },
  "userdoc": {
    "kind": "user",
    "methods": {},
    "version": 1
  }
}