{
  "contractName": "Simple",
  "abi": [
    {
      "inputs": [],
      "stateMutability": "nonpayable",
      "type": "constructor"
    },
    {
      "inputs": [],
      "name": "foo",
      "outputs": [
        {
          "internalType": "string",
          "name": "",
          "type": "string"
        }
      ],
      "stateMutability": "view",
      "type": "function"
    },
    {
      "inputs": [],
      "name": "setFoo",
      "outputs": [],
      "stateMutability": "nonpayable",
      "type": "function"
    }
  ],
  "bytecode": "0x608060405234801561001057600080fd5b506102ff806100206000396000f3fe608060405234801561001057600080fd5b50600436106100365760003560e01c8063c29855781461003b578063fb3ab0da14610059575b600080fd5b610043610063565b604051610050919061011c565b60405180910390f35b6100616100f1565b005b600080546100709061016a565b80601f016020809104026020016040519081016040528092919081815260200182805461009c9061016a565b80156100e95780601f106100be576101008083540402835291602001916100e9565b820191906000526020600020905b8154815290600101906020018083116100cc57829003601f168201915b505050505081565b6040805180820190915260048152633130b91960e11b60208201526000906101199082610209565b50565b600060208083528351808285015260005b818110156101495785810183015185820160400152820161012d565b506000604082860101526040601f19601f8301168501019250505092915050565b600181811c9082168061017e57607f821691505b60208210810361019e57634e487b7160e01b600052602260045260246000fd5b50919050565b634e487b7160e01b600052604160045260246000fd5b601f82111561020457600081815260208120601f850160051c810160208610156101e15750805b601f850160051c820191505b81811015610200578281556001016101ed565b5050505b505050565b815167ffffffffffffffff811115610223576102236101a4565b61023781610231845461016a565b846101ba565b602080601f83116001811461026c57600084156102545750858301515b600019600386901b1c1916600185901b178555610200565b600085815260208120601f198616915b8281101561029b5788860151825594840194600190910190840161027c565b50858210156102b95787850151600019600388901b60f8161c191681555b5050505050600190811b0190555056fea2646970667358221220f2c620cfa9132c6d40ff66e98fdb2dd220e37eefa6b380bceb1d1e8fb028d1fe64736f6c63430008130033",
  "immutableReferences": {},
  "source": "//SPDX-License-Identifier: MIT\npragma solidity ^0.8.0;\n\ncontract Simple {\n    constructor() {}\n\n    string public foo;\n\n    function setFoo() external {\n        foo = \"bar2\";\n    }\n}",
  "sourcePath": "/Users/pili/mydocument/code/project/dwong/contract-verify/contracts/Simple.sol",
  "compiler": {
    "name": "solc",
    "version": "0.8.19+commit.7dd6d404.Emscripten.clang"
  },
  "schemaVersion": "3.3.4",
  "updatedAt": "2023-08-17T03:00:52.465Z",
  "devdoc": {
    "kind": "dev",
    "methods": {},
    "version": 1
  },
  "userdoc": {
    "kind": "user",
    "methods": {},
    "version": 1
  }
}